:020000040800F2
:10000000901100207D0200082B140008291200081E
:1000100029140008B5030008ED1B000800000000CB
:100020000000000000000000000000009D0100082A
:10003000B703000800000000F901000805170008D8
:10004000970200089702000897020008970200082C
:10005000970200089702000897020008970200081C
:10006000970200089702000897020008970200080C
:1000700097020008970200089702000897020008FC
:1000800097020008970200089702000897020008EC
:1000900097020008970200089702000897020008DC
:1000A00097020008970200089702000897020008CC
:1000B00097020008970200089702000897020008BC
:1000C00097020008970200089702000897020008AC
:1000D000970200089702000897020008970200089C
:1000E000970200089702000897020008970200088C
:1000F000970200089702000897020008970200087C
:10010000970200089702000897020008970200086B
:10011000970200089702000897020008970200085B
:10012000970200089702000897020008970200084B
:10013000970200089702000897020008970200083B
:10014000970200089702000897020008970200082B
:10015000970200089702000897020008970200081B
:10016000970200089702000897020008970200080B
:10017000970200089702000897020008000000009C
:100180009702000897020008DFF80CD000F000F991
:1001900000480047191C0008901100202C4B1968DA
:1001A000086800F05AB880F30988BFF36F8F4FF0EA
:1001B000000080F3118870470000000008480068C4
:1001C000006880F308884FF0000080F3148862B65E
:1001D00061B6BFF34F8FBFF36F8F00DF00BF00BF6B
:1001E00008ED00E0DFF80C00016841F470010160E7
:1001F000704700BF88ED00E0EFF30980BFF36F8F19
:10020000134B1A681EF0100F08BF20ED108A20E96A
:10021000F04F106009B44FF0500080F31188BFF325
:100220004F8FBFF36F8F02F08DF94FF0000080F316
:10023000118809BC1968086800F014B81EF0100F86
:1002400008BF00F014B880F30988BFF36F8F7047C0
:1002500010000020EFF30580704730C8B0E8C04FB1
:10026000FFF7A1BF30C8B0E8C04FFFF7E7BFB0EC61
:10027000088AB0EC08CAFFF7E6BF000006488047CE
:1002800006480047FEE7FEE7FEE7FEE7FEE7FEE77B
:10029000FEE7FEE7FEE7FEE7811700088901000898
:1002A0002DE9F05F0546002092469B4688460646AB
:1002B000814640241BE0284641464746224600F03E
:1002C00056F853465A46C01A914110D31146184663
:1002D000224600F03DF82D1A67EB01084F462246F2
:1002E0000120002100F034F817EB00094E41201ED8
:1002F000A4F10104DFDC484631462A46434600F0BB
:1003000000B830BCBDE8C09F40EA01039B0703D0A2
:1003100009E008C9121F08C0042AFAD203E011F844
:10032000013B00F8013B521EF9D27047D2B201E006
:1003300000F8012B491EFBD270470022F6E710B5EA
:1003400013460A4604461946FFF7F0FF204610BD43
:10035000202A04DB203A00FA02F100207047914085
:10036000C2F1200320FA03F3194390407047202A7A
:1003700004DB203A21FA02F00021704721FA02F34F
:10038000D040C2F120029140084319467047000056
:10039000064C074D06E0E06840F0010394E80700D2
:1003A00098471034AC42F6D3FFF7F2FE102A00084B
:1003B000302A0008FEE77047704700002DE9F84F2B
:1003C000DFF898B100234FF0010C4FF0030A4FF013
:1003D0000F090BF1040EB9E00CFA03F4224070D0BF
:1003E0004D68022D01D0122D0ED1DD0800EB8508DD
:1003F000D8F820505E07F70E09FA07F6B5430E69E4
:10040000BE402E43C8F8206007685E0091F8048063
:100410000AFA06F508F00308AF4308FA06F848EAB6
:100420000708C0F800804F68012F05D0022F03D0C5
:10043000112F01D0122F13D1D0F80880CF6828EAED
:100440000508B74047EA08078760D0F804800F79AD
:1004500028EA0408C7F300179F4047EA08074760E7
:10046000D1F804806FEA0807BF0706D1C76AA7431F
:10047000C8F3C0049C403C43C462C468AC438D686C
:10048000B5402543C5604C68E4005ED5344C256E0C
:1004900045F001052566246E23F0030504F00104F0
:1004A0000094304C2E19B4689D072F0F09FA07F5F8
:1004B000AC43B0F1904F05D02B4DA84204D101259B
:1004C0001CE042E0002519E0284DA84201D1022598
:1004D00014E0274DA84201D103250FE0254DA84285
:1004E00001D104250AE0244DA84201D1052505E0EB
:1004F000224DA84201D1062500E00725BD40254335
:10050000B560DBF800405D464E689443F60300D5C5
:1005100014432C60DEF8004075464E689443B603E1
:1005200000D514432C600D4D08352C684E6894435B
:10053000F60200D514432C60084D0C352C684E682B
:100540009443B60200D514432C605B1C0A6832FA4F
:1005500003F57FF441AF00F013B800000004014040
:10056000001002400000014000040048000800485C
:10057000000C004800100048001400480018004813
:1005800018BCBDE8E08F0AB1816170478162704795
:100590000148006870470000080000200248016818
:1005A000491C01607047000008000020094810B590
:1005B0000168002441F480710160032000F05EF8BE
:1005C0000F2000F009F808B1012401E000F01CF848
:1005D000204610BD0020024070B5054609484FF482
:1005E0007A7100240068B0FBF1F000F0A1FD08B1C1
:1005F000012404E000222946501E00F01FF8204686
:1006000070BD00000C0000200B4882B0016E41F06C
:1006100001010166016E01F001010091816D41F05F
:1006200080518165806D002200F0805000900F2184
:10063000901E02B000F002B800100240F0B40E4B61
:100640001B680C46C3F30223C3F10705042D00D930
:100650000425191D072901D2002300E0DB1E012615
:1006600006FA05F1491E214099409E40761E16402B
:100670003143F0BC00F0DABE0CED00E0064900F0BA
:10068000070208684FF6FF03184040EA0220034AB9
:1006900010430860704700000CED00E00000FA0510
:1006A0001649B0F5007F0868C0F3412009D0022840
:1006B00005D0086820F4C06040F480600860002025
:1006C00070470128FBD0086820F4C06040F4007037
:1006D00008600B483222006850430A4AB0FBF2F02F
:1006E000401C00E0401E4A69520501D50028F9D19E
:1006F00048694005E3D503207047000000700040C2
:100700000C00002040420F000248006800F4C06066
:1007100070470000007000402DE9F84F04460027A4
:100720000088E54D3E46010504F1200B1DD5606EA5
:1007300078B1B0F5800F11D0B0F5000F04D0B0F54E
:10074000400F22D001270FE0E86840F48030E860D5
:100750001BE00021201D00F079FE03E00021584637
:1007600000F00AFF070010D03E462088C00426D5BE
:10077000A06EC0B1B0F1807F1AD0B0F1007F0DD073
:10078000B0F1407F19D0012718E0D5F88800616EDC
:1007900020F440000843C5F88800E6E7E86840F424
:1007A0008030E86009E00021201D00F04FFE03E0EA
:1007B0000021584600F0E0FE0746F7B13E462068AB
:1007C00080033AD5A86D4FF00008C00009D4A86D89
:1007D00040F08050A865A86D4FF0010800F08050EF
:1007E0000090DFF8D8A2DAF8001041F48071CAF85E
:1007F0000010FFF7CDFE814610E0D5F88800A16E0D
:1008000020F040700843C5F88800D8E7FFF7C0FE25
:10081000A0EB0900022801D9032705E0DAF800005F
:10082000C005F3D5002F7CD04FEA0706B8F1000FC2
:1008300003D0A86D20F08050A8652078C00707D0AD
:10084000D5F88800A16B20F003000843C5F88800A4
:100850002078800707D5D5F88800E16B20F00C00E0
:100860000843C5F888002078400707D5D5F88800E8
:10087000216C20F030000843C5F88800207800077C
:1008800007D5D5F88800616C20F0C0000843C5F892
:1008900088002078C00607D5D5F88800A16C20F420
:1008A00040700843C5F888002078800607D5D5F841
:1008B0008800E16C20F440600843C5F88800208877
:1008C000800507D5D5F88800E16D20F44020084365
:1008D000C5F888002088400507D5D5F88800216E26
:1008E00020F440100843C5F888002078400607D55A
:1008F000D5F88800216D20F440500843C5F88800E1
:100900002078000607D5D5F88800616D20F44040B6
:100910000843C5F888002088C00509D5D5F88800A7
:1009200000E01CE0A16D20F440300843C5F88800C9
:1009300020884FF0006780044FF080684FD5D5F8CD
:100940008800E16E20F040600843C5F88800E06E42
:10095000B8423CD1E86840F48010E8603FE0D5F848
:10096000900010F4407015D0D4F88410814211D05A
:10097000D5F89000D5F8901020F4407041F4803103
:10098000C5F89010D5F8901021F48031C5F890107A
:10099000C5F89000C00710D0FFF7FAFD074641F2F6
:1009A000883906E0FFF7F4FDC11B494501D903264C
:1009B0003CE7D5F890008007F4D5D5F89000D4F83E
:1009C000841020F440700843C5F890002EE740459D
:1009D00005D10121201D00F039FD00B10646206837
:1009E000000317D5D5F88800216F20F04060084338
:1009F000C5F88800206FB84204D1E86840F4801040
:100A0000E86007E0404505D10121201D00F01EFDF2
:100A100000B106462068400317D5D5F88800616FFD
:100A200020F040600843C5F88800606FB84204D1E8
:100A3000E86840F48010E86007E0404505D10121F6
:100A4000201D00F003FD00B10646208840041AD5A1
:100A5000D5F88800A16F20F040500843C5F8880001
:100A6000A06FB0F1805F03D0B0F1005F05D00AE065
:100A70000221201D00F0EAFC03E00221584600F0AC
:100A80007BFD00B106462088000407D5D5F8880014
:100A9000E16F20F080400843C5F888002068C0035B
:100AA00007D555F8880FD4F8801020F0004008438F
:100AB0002860304600F004B800100240007000408A
:100AC00018BCBDE8E08F00002DE9F0470F46050097
:100AD00058D03F4E306800F00700B84209D2306865
:100AE00020F0070038433060306800F00700B8425B
:100AF00048D12878374CC0072CD06868032811D01B
:100B0000022812D0216898B1490500293ADAA16873
:100B100021F003010143A160FFF73AFD804641F255
:100B2000883910E021688901EFE721688903ECE743
:100B30008907EAE7FFF72CFDA0EB0801494502D938
:100B40000320BDE8F087A068696800F00C00B0EBF6
:100B5000810FEFD12878800705D5A068A96820F01B
:100B6000F0000843A060306800F00700B8420BD9DD
:100B7000306820F0070038433060306800F007002C
:100B8000B84201D00120DCE72878400705D5A068ED
:100B9000E96820F4E0600843A0602878000706D5E3
:100BA000A068296920F4605040EAC100A06000F00C
:100BB0003BF8A168084AC1F30311515C01F01F0121
:100BC000C84006490860BDE8F0470F20FFF704BDA4
:100BD0000020024000100240A42900080C00002060
:100BE0000548064900688968054AC1F30221515C3D
:100BF00001F01F01C84070470C00002000100240A7
:100C0000E42900080548064900688968054AC1F3D7
:100C1000C221515C01F01F01C84070470C00002048
:100C200000100240E429000870B525490023184649
:100C30008A68CC6812F00C0204F00306214C4FEADB
:100C4000640509D00C2A05D0042A26D0082A00D130
:100C5000284670BD012E10D10B681B0704D4D1F8B3
:100C60009430C3F3032302E00B68C3F30313164E5F
:100C700056F823307AB10C2AEBD1C86800F0030291
:100C8000C868C0F30210401C022A08D0032A09D009
:100C9000B3FBF0F008E0184670BD204670BDB4FB11
:100CA000F0F001E0B5FBF0F0CA68C968C2F30622B3
:100CB0005043C1F34161491C4900B0FBF1F070BDE4
:100CC000001002400024F400B42900082DE9F84384
:100CD00005007CD0FD4CA06800F00C06E06800F038
:100CE00003072878C00661D576B10C2E01D1012FFB
:100CF0000AD0A8690028206878D040F00100206060
:100D0000FFF746FC804659E02068800702D5A869B5
:100D10000028DED0286A2168090703D5216801F080
:100D2000F00104E0D4F89410F02202EA1111884294
:100D300015D900F0A5FC002849D1206840F0080032
:100D400020602068296A20F0F00008432060606875
:100D5000E96920F47F4040EA0120606015E02068E6
:100D600040F0080020602068296A20F0F000084365
:100D700020606068E96920F47F4040EA01206060FB
:100D8000286A00F07DFC0028D6D1FFF74DFFA1684E
:100D9000CF4AC1F30311515C01F01F01C840CD4996
:100DA00008600F20FFF718FC00287DD12FE000BF5E
:100DB000FFF7EEFBA0EB0800022876D8206880073A
:100DC000F6D5206840F008002060206801E0BBE014
:100DD0000CE0296A20F0F000084320606068E969AF
:100DE00020F47F4040EA0120606010E020F0010024
:100DF0002060FFF7CDFB804606E000BFFFF7C8FB91
:100E0000A0EB08000228D8D820688007F6D42878FC
:100E1000C00740D0082E18D00C2E01D1032F14D0BB
:100E20006868B0F5803F17D0B0F5A02F206817D0C4
:100E300020F480302060206820F4802020606868E2
:100E4000E0B1FFF7A5FB804614E02068800322D5BF
:100E50006868002878D01EE0206840F48030EDE714
:100E600040F480202060F7E7FFF792FBA0EB08003A
:100E70006428A2D820688003F6D50CE0FFF788FB31
:100E8000804605E0FFF784FBA0EB0800642894D8B7
:100E900020688003F6D4287880073BD5042E11D033
:100EA0000C2E04D1022F01E036E1A1E00AD0E8685F
:100EB000002820681ED040F480702060FFF768FB97
:100EC00007460CE0206840050CD5E8680028C1D032
:100ED00008E000BFFFF75CFBC01B022893D8206826
:100EE0004005F7D56068297C20F0F85040EA0160A1
:100EF00060600FE020F480702060FFF749FB074638
:100F000005E000BFFFF744FBC01B022870D8206833
:100F10004005F7D42878000729D568690028D4F857
:100F2000940012D040F00100C4F89400FFF730FBA9
:100F3000074604E0FFF72CFBC01B022858D8D4F862
:100F400094008007F6D512E0EDE020F00100C4F82F
:100F50009400FFF71DFB074605E000BFFFF718FBF5
:100F6000C01B022844D8D4F894008007F6D428780F
:100F7000400768D5A06D0027C00008D4A06D40F0E0
:100F80008050A065A06D012700F08050009052486D
:100F90000168C90512D40168814641F4807101607D
:100FA000FFF7F6FA804605E0FFF7F2FAA0EB08003B
:100FB00002281DD8D9F80000C005F5D5A868012879
:100FC00017D00528D4F8900018D020F00100C4F8FC
:100FD0009000D4F8900020F0040000BFC4F8900006
:100FE000A86841F28839D0B1FFF7D2FA804611E003
:100FF0006BE0D4F8900040F00100EFE740F004000F
:10100000C4F89000F5E700BFFFF7C2FAA0EB0801B3
:1010100049455AD8D4F890008007F5D50EE0FFF77F
:10102000B7FA804606E000BFFFF7B2FAA0EB08016E
:10103000494570D8D4F890008007F5D41FB1A06D51
:1010400020F08050A065A86AF0B30C2E6BD0022867
:10105000206820F08070206004D0206810F0205FAD
:1010600047D04AE0FFF794FA064604E0FFF790FA0B
:10107000801B02284FD820688001F7D4286BE96ACA
:10108000000110380843696BAA6B0902120941EA92
:1010900042410843A98F114A490802EB41510843D4
:1010A00095F840104908120102EB41610843E060E5
:1010B000206840F080702060E06840F08070E06060
:1010C000FFF766FA054610E02BE024E0001002402E
:1010D000A42900080C000020007000400000E0FF80
:1010E000FFF756FA401B022815D820688001F7D573
:1010F00017E0E06820F00300E060E0680B4908407A
:10110000E060FFF745FA054608E000BFFFF740FA48
:10111000401B022802D90320BDE8F8832068800123
:10112000F4D40020F8E70120F6E70000FFFFEEFE10
:1011300010B5401EB0F1807F01D3012010BD4FF0EB
:10114000E02460610F21601700F070F90020A061B9
:1011500007202061002010BD10B5040003D094F8D2
:10116000710010B107E0012010BD002084F870006C
:10117000204600F027F8242084F8710020680168D8
:1011800021F001010160204600F0AEFB0128EBD008
:10119000606A10B1204600F015FB2068416821F418
:1011A000904141602068816821F02A0181602068B7
:1011B000016841F0010101602046BDE8104000F0E7
:1011C00065BB000010B586B0044614216846FFF7E1
:1011D000B4F81349206888421FD11248816D41F448
:1011E00000318165816D01F400310591C16C41F0E0
:1011F0000101C164C06C694600F0010005900C203B
:10120000009002200190002002900320039007200C
:1012100004904FF09040FFF7D1F806B010BD0000E9
:101220000044004000100240FEE7002220214FF061
:101230009040FFF7A8B9012220214FF09040FFF71E
:10124000A2B9000040F2DC5641F288344FF47A78BB
:101250004FF4FA77DFF8749000F018FD051913E0E9
:10126000FFF7E9FF502000F005FDFFF7DEFF5020FB
:1012700000F000FDFFF7DFFF502000F0FBFCFFF760
:10128000D4FF304600F0F6FC00F000FDA842E7D99C
:10129000FFF7CBFF002000F041FD00F0F7FC05193F
:1012A0000AE000BFFFF7C7FF404600F0E3FCFFF78E
:1012B000BCFF384600F0DEFC00F0E8FCA842F1D9A3
:1012C000D9F8000000F010FDC6E700000000002083
:1012D000154F42F210764FF47A7500BF00F0D6FC3D
:1012E000841913E0FFF7A7FF642000F0C3FCFFF7A9
:1012F0009CFF642000F0BEFCFFF79DFF642000F01F
:10130000B9FCFFF792FF284600F0B4FC00F0BEFCE9
:10131000A042E7D9FFF789FF386800F0E5FC00201C
:1013200000F0FCFCDAE700000000002000B585B00A
:10133000142206496846FEF7E7FF0021684600F0E0
:10134000BBFC0349086005B000BD000090290008FF
:101350000400002030B587B014216846FEF7EDFF89
:101360001F48C16C41F00401C164C16C01F004016B
:101370000591C16C41F08001C164C16C01F0800134
:101380000591C16C41F00101C164C16C01F0010122
:101390000591C16C41F00201C164C06C4FF09045F1
:1013A00000F002000590002220212846FFF7EBF80C
:1013B0004FF4005000900B480024CDE90104694629
:1013C0000948FEF7FBFF202000900120CDE9010431
:1013D000694628460394FEF7F1FF07B030BD0000D0
:1013E0000010024000002110000800480D4810B510
:1013F0000B4901604FF4E1314160002181600C2212
:10140000C160C0E904128161C16101624162FFF7FC
:10141000A3FE002803D0BDE81040FEF7CDBF10BDED
:101420000044004070000020FEE770470907090EE5
:10143000002806DA00F00F0000F1E02080F8141D0B
:10144000704700F1E02080F8001470472DE9F0416A
:10145000444C05468846E0680026810728680DD080
:10146000E16801F00301814216D1A8B1E068696822
:10147000C0F30210401C88420ED120E0012804D0A5
:10148000022805D0032807D108E02168890701E078
:1014900021684905002907DB01265FE021688903EF
:1014A00002D421684903F5E7E1686A686FF00F0329
:1014B00021F0730103EB021211430143E160206844
:1014C00020F080602060FFF763F8074605E000BF6A
:1014D000FFF75EF8C01B022837D820680001F7D458
:1014E000B8F1000F18D0B8F1010F1ED0287D4FF0D1
:1014F0007E41400801EB4060A96840EA0120216973
:10150000194A114008432061206840F08060206043
:10151000FFF73EF807461AE0A868E96800020909E3
:1015200040EA41402169114AEBE7288A1049400806
:1015300001EB4050A96840EA012021690D4AE0E72B
:10154000FFF726F8C01B022801D9032606E0206811
:101550000001F5D52069A969084320613046BDE83E
:10156000F081000000100240FF80FFF9FF80FDFFC6
:101570000000E0FFFF809FFF2DE9F0413D4C064653
:101580008846E0680025810730680DD0E16801F0E9
:101590000301814216D1A8B1E0687168C0F302105E
:1015A000401C88420ED120E0012804D0022805D03A
:1015B000032807D108E02168890701E0216849056F
:1015C000002907DB012551E02168890302D4216845
:1015D0004903F5E7E16872686FF00F0321F07301CA
:1015E00003EB021211430143E160206820F08050B8
:1015F0002060FEF7CDFF074605E000BFFEF7C8FFFD
:10160000C01B022829D820688000F7D4B8F1000F49
:1016100015D0307C4FF07E41400801EB4060B1684E
:1016200040EA01206169144A114008436061206862
:1016300040F080502060FEF7ABFF07460FE0B06837
:10164000F1680002090940EA414061690B4AEBE791
:10165000FEF79EFFC01B022801D9032506E0206883
:101660008000F5D560697169084360612846BDE86E
:10167000F081000000100240FF80FFF9FF80FDFFB5
:10168000F8B51C4D06460024A86DC00002D5FFF732
:101690003BF80DE0A86D40F08050A865A86D00F003
:1016A00080500090FFF730F8A96D21F08051A965B6
:1016B000B0F5007F04D0802E07D94FF003040AE074
:1016C000802E08D9A02E01D804E001D1022402E026
:1016D000702E00D101240848016821F00701214340
:1016E0000160006800F00700A04201D00120F8BDB1
:1016F0000020F8BD0010024000200240012000F050
:10170000B9FAFBE710B5FEF749FFBDE8104000F05D
:10171000C9BA30B5B9B0442122A8FEF70EFE142193
:1017200033A8FEF70AFE88216846FEF706FE02246B
:10173000E00125901020229426902C940120CDE9E0
:101740002D400A202F900720CDE9300422A83294A2
:10175000FFF7BCFA0F20002533900320CDE93405B4
:101760003695042133A83795FFF7AEF90F956846F3
:101770000094FEF7D1FF2002FEF792FF39B030BD92
:101780000D48016841F4700101600C48016841F0A6
:1017900001010160002181600268094B1A4002606A
:1017A0008214C260026822F48022026081610249D0
:1017B000C00380390860704788ED00E000100240E7
:1017C000FFFFF6EA90F82410C90706D001684A68BE
:1017D000836A22F400321A434A6090F82410890781
:1017E00006D501684A68C36A22F480321A434A6007
:1017F00090F82410490706D501684A68036B22F463
:1018000080221A434A6090F82410090706D501681F
:101810004A68436B22F400421A434A6090F824104D
:10182000C90606D501688A68836B22F480521A4380
:101830008A6090F82410890606D501688A68C36B0F
:1018400022F400521A438A6090F82410490611D5F8
:1018500001684A68036C22F480121A434A60016CE2
:10186000B1F5801F06D101684A68436C22F4C002BA
:101870001A434A6090F82410090606D501684A68A0
:10188000806C22F4002202434A607047F8B50026BB
:1018900004464667FEF77CFE0546206800686FF048
:1018A0007E47000708D52B4600224FF40011204642
:1018B000009700F069F960B92068006840070AD510
:1018C0002B4600224FF480012046009700F05CF97F
:1018D00008B10320F8BD202084F8710084F872005C
:1018E00084F870600020F8BD2DE9F04104460168DD
:1018F00080682369E669184363691025002733432C
:101900001843954A0B68954E334003430B6020689B
:101910004168E36821F44051194341602168A0699E
:10192000914201D0236A18438B6823F43063034348
:101930008B608B4B21688B4899420DD1D0F8880081
:1019400010F0030006D001285AD0022856D00328F0
:1019500059D157E0012556E0834B99420BD1D0F87D
:10196000880010F00C0047D0042849D0082845D042
:101970000C2848D146E07D4B99420BD1D0F8880025
:1019800010F0300038D010283AD0202836D0302837
:1019900039D137E0764B99420BD1D0F8880010F05E
:1019A000C00029D040282BD0802827D0C0282AD199
:1019B00028E0704B99420ED1D0F8880010F44070A6
:1019C0001AD0B0F5807F1BD0B0F5007F16D0B0F5EF
:1019D000407F18D116E0914215D1D0F8880010F45C
:1019E000406009D0B0F5806F0AD0B0F5006F05D027
:1019F000B0F5406F07D105E0002504E0022502E0C4
:101A0000042500E008255C4B00264FF4004091427D
:101A10003DD135B1022D07D0042D07D0082D10D1AE
:101A200007E0FFF7DDF803E0184602E0FFF7FCF8F7
:101A3000A8B3626802EB4201814202D8B0EB023FD8
:101A400001D9012775E0DFF834815DB1022D0CD09A
:101A5000042D13D0082DF4D150082905401846F163
:101A6000000105E0FFF7BCF80AE050084449F5E73B
:101A70000023FEF715FCA0F5407156E0FFF7D4F8FF
:101A80006268010E0302500818187141F0E7E1691D
:101A90004FF6EF7881422FD1092DD2D200E048E0F5
:101AA000DFE805F006092005230505052600C8E73F
:101AB000FFF796F801E0FFF7A5F84100D4F804001D
:101AC00001EB5001B1FBF0F080B2A0F110014145F3
:101AD000B7D84FF6F0710140C0F3420001432068CF
:101AE000C16026E027496068EAE7FFF79DF8E4E770
:101AF0004FF480316068E3E7092DA2D2DFE805F0FA
:101B000006091E052205050525009AE7FFF768F876
:101B100001E0FFF777F80146606801EB500100BF74
:101B2000B1FBF0F080B2A0F11001414589D82168E5
:101B3000C860266638466666BDE8F081606803EBDB
:101B40005001EDE7FFF770F8E5E7616800EB510041
:101B5000B0FBF1F0E6E7000000800040F369FFEF22
:101B6000003801400010024000440040004800409E
:101B7000004C0040005000400024F400FFFC0F0027
:101B8000000024F40048E8012DE9F041984617468A
:101B90000E460446069D1DE0681C1BD02DB1FEF7C5
:101BA000F7FCA0EB0800A84214D92068016821F4D2
:101BB000D07101602068816821F0010181602020DE
:101BC00084F8710084F87200002084F8700003200B
:101BD000BDE8F0812068C06936EA000004D000202A
:101BE000B842D9D00020F3E70120F9E7FEE702E090
:101BF00008C8121F08C1002AFAD170477047002098
:101C000001E001C1121F002AFBD17047EFF30580EC
:101C1000002800D0012070478AB0FEF7C7FCFFF70C
:101C200078FDFFF797FBFFF7E1FB14220C496846AC
:101C3000FEF76AFB0A491422143105A8FEF764FB7B
:101C40000021684600F038F8064C00212060684604
:101C500000F032F82060FFF769FB00F012F8FEE7B1
:101C6000682900080000002001460020842900D0D7
:101C7000C81C704710B500B9012000F065FB0020BA
:101C800010BD10B500F0C4FB002010BD10B5FFF76B
:101C9000BDFF18B1BDE8104000F054BDBDE81040D4
:101CA00000F04ABD10B500F039FD012803D0BDE8B1
:101CB000104000F0EFBC10BD3EB504460D46B0F933
:101CC0000800FFF7D1FF02A9CDE90001208A2B46C9
:101CD00082B2D4E9001000F0F3FC012801D000200A
:101CE0003EBD02983EBD000010B50446FFF78EFFD2
:101CF000002820460BD000F0F3FD012809D1064949
:101D000000070860BFF34F8FBFF36F8F01E000F053
:101D100041FB002010BD000004ED00E010B500F014
:101D2000ABFB002010BD00002DE9F041184C0F4620
:101D3000054666692068001D00F022FA38B920685F
:101D400090F82C1001208840A1698143A161681C92
:101D500007D137B12168BDE8F0410E48091D00F0F8
:101D600048BA20683544B5424560216805D2A0686C
:101D7000BDE8F041091D00F024BA6068091D00F0BB
:101D800020FA206B854200D22563BDE8F081000077
:101D900010000020C40100202DE9F041054600F0AC
:101DA00035FA2E4C2069401C206120682C4F10B160
:101DB000E06940B32DE025602069012829D1002683
:101DC00006EB860007EB800000F0EDF9761C072E8D
:101DD000F6D323488C3000F0E6F92148A03000F01B
:101DE000E2F91F48B43000F0DEF91D48C83000F0B9
:101DF000DAF91B48DC3000F0D6F919488C30606005
:101E00001430A06005E02068E96AC06A884200D802
:101E10002560E06A401CE062E96A0120A26988400E
:101E20001043A06101EB810007EB8000291D00F049
:101E3000E0F900F00BFAE06900280CD02068E96AAC
:101E4000C06A884207D207494FF080500860BFF34C
:101E50004F8FBFF36F8FBDE8F081000010000020AE
:101E6000E800002004ED00E010B50446006B00F02F
:101E700001FA2046BDE8104000F0FCB90F4840F6DA
:101E8000B831420705D0C01D0C4A20F00700821A65
:101E9000891A0B4A00230144C2E900030839103AA9
:101EA00021F0070111604B600B600B1AC0E90013B1
:101EB00093604FF000405360D0607047D80100201D
:101EC0005C000020144E154CA6F1C8074FF0805856
:101ED000DFF84C9012E000BF00F098F9F068C56898
:101EE000281D00F04DF92069401E2061E068401E69
:101EF000E06000F0ABF92846FFF7B6FFE068002885
:101F0000EAD138680128F9D9C9F80080BFF34F8FAA
:101F1000BFF36F8FF2E70000B00100201000002037
:101F200004ED00E02DE9F0479A46DDE90984814699
:101F30006FF00303206B03EB82021044089D20F036
:101F40000706700707D0502080F31188BFF34F8F2A
:101F5000BFF36F8FFEE723180A5C83F834200A5C16
:101F600012B1401C1028F6D3002784F84370072DC7
:101F700000D30625E562C4E91157201D00F01EF9C3
:101F800004F1180000F01AF92461C5F10700646239
:101F9000A061E76484F8507052464946304600F02C
:101FA000D9F82060B8F1000F01D0C8F80040BDE8B2
:101FB000F087000030B5114900E011460A688242FE
:101FC000FBD34B685C18844203D1406818444860D6
:101FD000084643681C18944209D1084C103C2468F8
:101FE000A24209D052681A4442600A68126802602C
:101FF000814200D0086030BD0460F9E75C00002039
:1020000006484168096829B14168C968C9684968D2
:10201000016370474FF0FF31FAE700001000002025
:1020200008484068401C4FF0500080F3118804D0ED
:10203000BFF34F8FBFF36F8FFEE7BFF34F8FBFF339
:102040006F8FFEE764000020002150B10A4B426907
:102050009A420FD1806AA3F1280290420AD040B17F
:1020600008E0502080F31188BFF34F8FBFF36F8FCC
:10207000FEE7012108467047C40100202DE9F04128
:102080000546002700F056FA314E306808B9FFF7D0
:10209000F5FEF06805424BD1C5B3083568070ED090
:1020A00005F00700C0F108000544680707D050207C
:1020B00080F31188BFF34F8FBFF36F8FFEE72DB30F
:1020C0007068854234D82248103001460C6801E01F
:1020D00020460C466168A94202D221680029F7D146
:1020E00031688C4224D00768216801606068083735
:1020F000411B10290FD96019420708D0502080F3E6
:102100001188BFF34F8FBFF36F8FFEE710E0416080
:102110006560FFF74FFF61687068401A7060B268D1
:10212000904200D2B060F06801430020C4E9000191
:1021300000F074FB780707D0502080F31188BFF3BC
:102140004F8FBFF36F8FFEE73846BDE8F081000088
:102150004C00002010B5031F4FF080741C601B1F43
:1021600021F001011960191F044B0B6014390A603A
:10217000091F6FF0020244380A6010BD21200008D8
:10218000D0E9013201699A60D0E901235A604A68B6
:10219000824201D182684A60002202610868401EC2
:1021A00008600868704700F108014FF0FF32C0E98D
:1021B0000112C160016100210160704700210161CD
:1021C000704730B50B685A1C02D000F1080202E0DB
:1021D000026904E02246546825689D42FAD9536892
:1021E0004B6099608A60516008610168491C016018
:1021F00030BD42684A6093688B6093685960916013
:1022000008610168491C016070470000502080F39C
:102210001188BFF34F8FBFF36F8F0A494868401C86
:10222000486001280CD10848006810F0FF0F07D063
:10223000502080F31188BFF34F8FBFF36F8FFEE7FD
:10224000704700006400002004ED00E00849486881
:1022500028B1401E486001D180F31188704750209A
:1022600080F31188BFF34F8FBFF36F8FFEE700003D
:102270006400002070B5002827D0144DA0F1080498
:102280006168E868014207D1502080F31188BFF3EC
:102290004F8FBFF36F8FFEE722683AB1502080F373
:1022A0001188BFF34F8FBFF36F8FFEE781436160EB
:1022B00000F040F960686968084468602046FFF7EC
:1022C00079FEBDE8704000F0A9BA70BD4C00002056
:1022D0004FF0E02000210161816105494FF47A72DD
:1022E0000968B1FBF2F1491E4161072101617047A4
:1022F0000C00002010B5FDF7ADFF114910280ED3DA
:1023000000F1E02090F8F0030A78904207D25020C4
:1023100080F31188BFF34F8FBFF36F8FFEE709483B
:102320000068896800F4E060884207D9502080F393
:102330001188BFF34F8FBFF36F8FFEE710BD000012
:10234000640000200CED00E010B5020014D00F482E
:10235000806B38B1502080F31188BFF34F8FBFF3EB
:102360006F8FFEE700F0E6F800211046FFF7DCFC77
:1023700000F054FA002807D105494FF0805008605A
:10238000BFF34F8FBFF36F8F10BD00001000002010
:1023900004ED00E070B504002BD01A4D286884428B
:1023A0002FD0FFF733FF2046FFF74EFEE8B1201D88
:1023B000FFF7E6FEE06A0121AA6981401143A961A5
:1023C000114900EB800001EB8000211DFFF711FF98
:1023D000E06A2968C96A884207D30C494FF08050E7
:1023E0000860BFF34F8FBFF36F8FBDE87040FFF7FA
:1023F0002DBF502080F31188BFF34F8FBFF36F8F35
:10240000FEE770BD10000020E800002004ED00E0B1
:102410001CB515480024CDE900402346802213A1B5
:10242000144800F04DF9012809D0401C1AD1502061
:1024300080F31188BFF34F8FBFF36F8FFEE75020FB
:1024400080F31188BFF34F8FBFF36F8F06484FF0B3
:10245000FF31343801630121C1614461BDE81C4092
:1024600000F09EB81CBD00004400002049444C45CB
:1024700000000000C51E000870B50446FFF7C6FE48
:10248000294D04B92C68201DFFF77AFE58B9E06A7F
:10249000264A00EB800152F8211021B90121814028
:1024A000A8698843A861A06A18B104F11800FFF771
:1024B00067FE1E48211DDC30FFF79BFE94F850009C
:1024C0000026012801D184F85060FFF7BFFEE869BB
:1024D00028B1FFF79BFEFFF793FDFFF7B7FE2868D3
:1024E000844213D1E86990B1A86B38B1502080F3D1
:1024F0001188BFF34F8FBFF36F8FFEE70C494FF08A
:1025000080500860BFF34F8FBFF36F8F70BD0748D7
:10251000DC3000682969884201D12E6070BDBDE8B9
:10252000704000F00FB8000010000020E80000200C
:1025300004ED00E00248816B491C81637047000094
:10254000100000201448816B11B1012141627047D5
:10255000002141628169B1FA81F1C1F11F0101EBF2
:1025600081020E4951F822306BB101EB820101F179
:1025700008034A6852684A609A4201D152684A6028
:10258000D16801607047502080F31188BFF34F8FEE
:10259000BFF36F8FFEE7000010000020E80000206E
:1025A0001CB537480168374A914207D1502080F363
:1025B0001188BFF34F8FBFF36F8FFEE7006831497B
:1025C000491E884207D1502080F31188BFF34F8FF6
:1025D000BFF36F8FFEE72C4908780190FF20087049
:1025E00008788DF800009DF800009DF8002000F0AC
:1025F000F000904207D0502080F31188BFF34F8F36
:10260000BFF36F8FFEE79DF80000204B00F05000F5
:1026100018700720986005E09DF8002052008DF8A2
:102620000020401E9DF800201206F5D49860032873
:1026300007D0502080F31188BFF34F8FBFF36F8F07
:10264000FEE74FF440709860019808700C48203005
:10265000016841F470010160016841F0704101605E
:10266000FFF736FE00205860FDF7BCFD0848016802
:1026700041F040410160FDF7A1FD00201CBD0000BC
:1026800000ED00E071C20F4100E400E064000020B2
:1026900034EF00E010B5502080F31188BFF34F8F66
:1026A000BFF36F8F00F056F818B104494FF0805017
:1026B0000860002080F3118810BD000004ED00E0E8
:1026C0002DE9FF5F8346DDE90E87994616468A4667
:1026D0009000FFF7D3FC05001AD05420FFF7CEFC82
:1026E000040012D025630021CDE90241CDE9008725
:1026F0004B46324651465846FFF714FC2046FFF73A
:102700004BFB012004B000F006B82846FFF7B2FDED
:102710004FF0FF30F6E730BCBDE8C09F0548C16907
:1027200019B1806B18B1002070470120704702205A
:102730007047000010000020014840697047000009
:102740001000002010B5FFF7D5FD0148406910BD0D
:10275000100000202DE9F0412E4C0027A06B40B165
:10276000206A401C2062606A00B101273846BDE83B
:10277000F0816669761C666113D16068006838B1C3
:10278000502080F31188BFF34F8FBFF36F8FFEE7A8
:102790006068A1686160A060A06A401CA062FFF749
:1027A0002FFC206BDFF87080864209D360680068D8
:1027B00080B16068C068C568686886420DD22063D1
:1027C0002068C06A00EB800158F821000128CAD9AE
:1027D0000127C8E74FF0FF30F1E7281DFFF7D0FCD5
:1027E000A86A18B105F11800FFF7CAFCE86A0121D0
:1027F000A26981401143A16100EB800108EB8100D7
:10280000291DFFF7F6FCE86A2168C96A8842CDD322
:102810000127CBE710000020E80000202DE9F04759
:102820002C4D00242746A86B38B1FFF7EFFCA86BAE
:10283000401EA863A86B40B146E0502080F3118889
:10284000BFF34F8FBFF36F8FFEE72969224E012040
:10285000D1B3A6F1B40980463068E8B1F068C46825
:1028600004F11800FFF78CFC201DFFF789FCE06ADB
:10287000AA6908FA00F11143A96100EB800109EB94
:102880008100211DFFF7B5FCE06A2968C96A88420A
:10289000E2D3C5F82480DFE70CB1FFF7B1FB2C6A67
:1028A00044B14646FFF756FF00B16E62641EF9D18F
:1028B00000202862686A38B1084901273807086093
:1028C000BFF34F8FBFF36F8FFFF7C0FC3846BDE8F3
:1028D000F0870000100000209C01002004ED00E0C3
:1028E0002DE9F0410027040015D0FFF703FD50202B
:1028F000EFF3118580F31188BFF34F8FBFF36F8F14
:102900002046FFF7A1FB30B3154EB06B58B104F170
:10291000180114481DE0502080F31188BFF34F8F39
:10292000BFF36F8FFEE7E06A3168C96A884200D35F
:102930000127201DFFF724FCE16A0120B2698840CD
:102940001043B06101EB81000649B43901EB80000E
:10295000211DFFF74EFC85F311883846BDE8F08154
:10296000100000209C010020EC29000845120008FE
:10297000000000000000000080000000F8290008AE
:10298000D1120008000000000000000080000000DC
:10299000042A0008FD1600080000000000000000E6
:1029A000800000000000000000000000010203049D
:1029B00006070809A0860100400D0300801A0600E2
:1029C00000350C0040420F0080841E0000093D00CD
:1029D00000127A000024F40000366E010048E8017D
:1029E000006CDC0200000000010203045448524560
:1029F00041445F31000000005448524541445F3279
:102A00000000000064656661756C745461736B004E
:102A1000302A00080000002070000000EE1B0008B3
:102A2000A02A00087000002020110000FE1B0008F2
:102A300000000000000000000000000000093D0050
:102A40000000000000000000000000000000000086
:102A50000000000000000000000000000000000076
:102A60000000000000000000000000000000000066
:102A70000000000000000000000000000000000056
:102A80000000000000000000000000000000000046
:102A90000000000000000000AAAAAAAA000000008E
:040000050800018965
:00000001FF
